{
    "_format": "hh-sol-artifact-1",
    "contractName": "Collection",
    "sourceName": "contracts/Collection.sol",
    "abi": [
        {
            "inputs": [],
            "stateMutability": "nonpayable",
            "type": "constructor"
        },
        {
            "inputs": [
                {
                    "internalType": "address",
                    "name": "sender",
                    "type": "address"
                },
                {
                    "internalType": "uint256",
                    "name": "tokenId",
                    "type": "uint256"
                },
                {
                    "internalType": "address",
                    "name": "owner",
                    "type": "address"
                }
            ],
            "name": "ERC721IncorrectOwner",
            "type": "error"
        },
        {
            "inputs": [
                {
                    "internalType": "address",
                    "name": "operator",
                    "type": "address"
                },
                {
                    "internalType": "uint256",
                    "name": "tokenId",
                    "type": "uint256"
                }
            ],
            "name": "ERC721InsufficientApproval",
            "type": "error"
        },
        {
            "inputs": [
                {
                    "internalType": "address",
                    "name": "approver",
                    "type": "address"
                }
            ],
            "name": "ERC721InvalidApprover",
            "type": "error"
        },
        {
            "inputs": [
                {
                    "internalType": "address",
                    "name": "operator",
                    "type": "address"
                }
            ],
            "name": "ERC721InvalidOperator",
            "type": "error"
        },
        {
            "inputs": [
                {
                    "internalType": "address",
                    "name": "owner",
                    "type": "address"
                }
            ],
            "name": "ERC721InvalidOwner",
            "type": "error"
        },
        {
            "inputs": [
                {
                    "internalType": "address",
                    "name": "receiver",
                    "type": "address"
                }
            ],
            "name": "ERC721InvalidReceiver",
            "type": "error"
        },
        {
            "inputs": [
                {
                    "internalType": "address",
                    "name": "sender",
                    "type": "address"
                }
            ],
            "name": "ERC721InvalidSender",
            "type": "error"
        },
        {
            "inputs": [
                {
                    "internalType": "uint256",
                    "name": "tokenId",
                    "type": "uint256"
                }
            ],
            "name": "ERC721NonexistentToken",
            "type": "error"
        },
        {
            "inputs": [
                {
                    "internalType": "address",
                    "name": "owner",
                    "type": "address"
                }
            ],
            "name": "OwnableInvalidOwner",
            "type": "error"
        },
        {
            "inputs": [
                {
                    "internalType": "address",
                    "name": "account",
                    "type": "address"
                }
            ],
            "name": "OwnableUnauthorizedAccount",
            "type": "error"
        },
        {
            "anonymous": false,
            "inputs": [
                {
                    "indexed": true,
                    "internalType": "address",
                    "name": "owner",
                    "type": "address"
                },
                {
                    "indexed": true,
                    "internalType": "address",
                    "name": "approved",
                    "type": "address"
                },
                {
                    "indexed": true,
                    "internalType": "uint256",
                    "name": "tokenId",
                    "type": "uint256"
                }
            ],
            "name": "Approval",
            "type": "event"
        },
        {
            "anonymous": false,
            "inputs": [
                {
                    "indexed": true,
                    "internalType": "address",
                    "name": "owner",
                    "type": "address"
                },
                {
                    "indexed": true,
                    "internalType": "address",
                    "name": "operator",
                    "type": "address"
                },
                {
                    "indexed": false,
                    "internalType": "bool",
                    "name": "approved",
                    "type": "bool"
                }
            ],
            "name": "ApprovalForAll",
            "type": "event"
        },
        {
            "anonymous": false,
            "inputs": [
                {
                    "indexed": false,
                    "internalType": "uint256",
                    "name": "_fromTokenId",
                    "type": "uint256"
                },
                {
                    "indexed": false,
                    "internalType": "uint256",
                    "name": "_toTokenId",
                    "type": "uint256"
                }
            ],
            "name": "BatchMetadataUpdate",
            "type": "event"
        },
        {
            "anonymous": false,
            "inputs": [
                {
                    "indexed": false,
                    "internalType": "uint256",
                    "name": "_tokenId",
                    "type": "uint256"
                }
            ],
            "name": "MetadataUpdate",
            "type": "event"
        },
        {
            "anonymous": false,
            "inputs": [
                {
                    "indexed": true,
                    "internalType": "address",
                    "name": "previousOwner",
                    "type": "address"
                },
                {
                    "indexed": true,
                    "internalType": "address",
                    "name": "newOwner",
                    "type": "address"
                }
            ],
            "name": "OwnershipTransferred",
            "type": "event"
        },
        {
            "anonymous": false,
            "inputs": [
                {
                    "indexed": true,
                    "internalType": "address",
                    "name": "from",
                    "type": "address"
                },
                {
                    "indexed": true,
                    "internalType": "address",
                    "name": "to",
                    "type": "address"
                },
                {
                    "indexed": true,
                    "internalType": "uint256",
                    "name": "tokenId",
                    "type": "uint256"
                }
            ],
            "name": "Transfer",
            "type": "event"
        },
        {
            "inputs": [],
            "name": "LIMIT_PER_ADDRESS",
            "outputs": [
                {
                    "internalType": "uint256",
                    "name": "",
                    "type": "uint256"
                }
            ],
            "stateMutability": "view",
            "type": "function"
        },
        {
            "inputs": [],
            "name": "MAX_SUPPLY",
            "outputs": [
                {
                    "internalType": "uint256",
                    "name": "",
                    "type": "uint256"
                }
            ],
            "stateMutability": "view",
            "type": "function"
        },
        {
            "inputs": [],
            "name": "PRICE_PER_TOKEN",
            "outputs": [
                {
                    "internalType": "uint256",
                    "name": "",
                    "type": "uint256"
                }
            ],
            "stateMutability": "view",
            "type": "function"
        },
        {
            "inputs": [
                {
                    "internalType": "address",
                    "name": "to",
                    "type": "address"
                },
                {
                    "internalType": "uint256",
                    "name": "tokenId",
                    "type": "uint256"
                }
            ],
            "name": "approve",
            "outputs": [],
            "stateMutability": "nonpayable",
            "type": "function"
        },
        {
            "inputs": [
                {
                    "internalType": "address",
                    "name": "owner",
                    "type": "address"
                }
            ],
            "name": "balanceOf",
            "outputs": [
                {
                    "internalType": "uint256",
                    "name": "",
                    "type": "uint256"
                }
            ],
            "stateMutability": "view",
            "type": "function"
        },
        {
            "inputs": [
                {
                    "internalType": "uint256",
                    "name": "tokenId",
                    "type": "uint256"
                }
            ],
            "name": "getApproved",
            "outputs": [
                {
                    "internalType": "address",
                    "name": "",
                    "type": "address"
                }
            ],
            "stateMutability": "view",
            "type": "function"
        },
        {
            "inputs": [
                {
                    "internalType": "address",
                    "name": "owner",
                    "type": "address"
                },
                {
                    "internalType": "address",
                    "name": "operator",
                    "type": "address"
                }
            ],
            "name": "isApprovedForAll",
            "outputs": [
                {
                    "internalType": "bool",
                    "name": "",
                    "type": "bool"
                }
            ],
            "stateMutability": "view",
            "type": "function"
        },
        {
            "inputs": [
                {
                    "internalType": "string",
                    "name": "tokenURI",
                    "type": "string"
                }
            ],
            "name": "mintNFT",
            "outputs": [
                {
                    "internalType": "uint256",
                    "name": "",
                    "type": "uint256"
                }
            ],
            "stateMutability": "payable",
            "type": "function"
        },
        {
            "inputs": [],
            "name": "name",
            "outputs": [
                {
                    "internalType": "string",
                    "name": "",
                    "type": "string"
                }
            ],
            "stateMutability": "view",
            "type": "function"
        },
        {
            "inputs": [],
            "name": "owner",
            "outputs": [
                {
                    "internalType": "address",
                    "name": "",
                    "type": "address"
                }
            ],
            "stateMutability": "view",
            "type": "function"
        },
        {
            "inputs": [
                {
                    "internalType": "uint256",
                    "name": "tokenId",
                    "type": "uint256"
                }
            ],
            "name": "ownerOf",
            "outputs": [
                {
                    "internalType": "address",
                    "name": "",
                    "type": "address"
                }
            ],
            "stateMutability": "view",
            "type": "function"
        },
        {
            "inputs": [],
            "name": "renounceOwnership",
            "outputs": [],
            "stateMutability": "nonpayable",
            "type": "function"
        },
        {
            "inputs": [
                {
                    "internalType": "address",
                    "name": "from",
                    "type": "address"
                },
                {
                    "internalType": "address",
                    "name": "to",
                    "type": "address"
                },
                {
                    "internalType": "uint256",
                    "name": "tokenId",
                    "type": "uint256"
                }
            ],
            "name": "safeTransferFrom",
            "outputs": [],
            "stateMutability": "nonpayable",
            "type": "function"
        },
        {
            "inputs": [
                {
                    "internalType": "address",
                    "name": "from",
                    "type": "address"
                },
                {
                    "internalType": "address",
                    "name": "to",
                    "type": "address"
                },
                {
                    "internalType": "uint256",
                    "name": "tokenId",
                    "type": "uint256"
                },
                {
                    "internalType": "bytes",
                    "name": "data",
                    "type": "bytes"
                }
            ],
            "name": "safeTransferFrom",
            "outputs": [],
            "stateMutability": "nonpayable",
            "type": "function"
        },
        {
            "inputs": [
                {
                    "internalType": "address",
                    "name": "operator",
                    "type": "address"
                },
                {
                    "internalType": "bool",
                    "name": "approved",
                    "type": "bool"
                }
            ],
            "name": "setApprovalForAll",
            "outputs": [],
            "stateMutability": "nonpayable",
            "type": "function"
        },
        {
            "inputs": [
                {
                    "internalType": "uint256",
                    "name": "limit",
                    "type": "uint256"
                }
            ],
            "name": "setLimit",
            "outputs": [],
            "stateMutability": "nonpayable",
            "type": "function"
        },
        {
            "inputs": [
                {
                    "internalType": "uint256",
                    "name": "max_supply",
                    "type": "uint256"
                }
            ],
            "name": "setMaxSupply",
            "outputs": [],
            "stateMutability": "nonpayable",
            "type": "function"
        },
        {
            "inputs": [
                {
                    "internalType": "uint256",
                    "name": "price",
                    "type": "uint256"
                }
            ],
            "name": "setPrice",
            "outputs": [],
            "stateMutability": "nonpayable",
            "type": "function"
        },
        {
            "inputs": [
                {
                    "internalType": "bytes4",
                    "name": "interfaceId",
                    "type": "bytes4"
                }
            ],
            "name": "supportsInterface",
            "outputs": [
                {
                    "internalType": "bool",
                    "name": "",
                    "type": "bool"
                }
            ],
            "stateMutability": "view",
            "type": "function"
        },
        {
            "inputs": [],
            "name": "symbol",
            "outputs": [
                {
                    "internalType": "string",
                    "name": "",
                    "type": "string"
                }
            ],
            "stateMutability": "view",
            "type": "function"
        },
        {
            "inputs": [
                {
                    "internalType": "uint256",
                    "name": "tokenId",
                    "type": "uint256"
                }
            ],
            "name": "tokenURI",
            "outputs": [
                {
                    "internalType": "string",
                    "name": "",
                    "type": "string"
                }
            ],
            "stateMutability": "view",
            "type": "function"
        },
        {
            "inputs": [
                {
                    "internalType": "address",
                    "name": "from",
                    "type": "address"
                },
                {
                    "internalType": "address",
                    "name": "to",
                    "type": "address"
                },
                {
                    "internalType": "uint256",
                    "name": "tokenId",
                    "type": "uint256"
                }
            ],
            "name": "transferFrom",
            "outputs": [],
            "stateMutability": "nonpayable",
            "type": "function"
        },
        {
            "inputs": [
                {
                    "internalType": "address",
                    "name": "newOwner",
                    "type": "address"
                }
            ],
            "name": "transferOwnership",
            "outputs": [],
            "stateMutability": "nonpayable",
            "type": "function"
        },
        {
            "inputs": [],
            "name": "withdrawMoney",
            "outputs": [],
            "stateMutability": "nonpayable",
            "type": "function"
        }
    ],
    "bytecode": "0x608060405260006008556000600955662386f26fc10000600c556002600d556005600e553480156200003057600080fd5b50336040518060400160405280600a81526020017f436f6c6c656374696f6e000000000000000000000000000000000000000000008152506040518060400160405280600381526020017f4e465400000000000000000000000000000000000000000000000000000000008152508160009081620000af919062000491565b508060019081620000c1919062000491565b505050600073ffffffffffffffffffffffffffffffffffffffff168173ffffffffffffffffffffffffffffffffffffffff1603620001395760006040517f1e4fbdf7000000000000000000000000000000000000000000000000000000008152600401620001309190620005bd565b60405180910390fd5b6200014a816200015160201b60201c565b50620005da565b6000600760009054906101000a900473ffffffffffffffffffffffffffffffffffffffff16905081600760006101000a81548173ffffffffffffffffffffffffffffffffffffffff021916908373ffffffffffffffffffffffffffffffffffffffff1602179055508173ffffffffffffffffffffffffffffffffffffffff168173ffffffffffffffffffffffffffffffffffffffff167f8be0079c531659141344cd1fd0a4f28419497f9722a3daafe3b4186f6b6457e060405160405180910390a35050565b600081519050919050565b7f4e487b7100000000000000000000000000000000000000000000000000000000600052604160045260246000fd5b7f4e487b7100000000000000000000000000000000000000000000000000000000600052602260045260246000fd5b600060028204905060018216806200029957607f821691505b602082108103620002af57620002ae62000251565b5b50919050565b60008190508160005260206000209050919050565b60006020601f8301049050919050565b600082821b905092915050565b600060088302620003197fffffffffffffffffffffffffffffffffffffffffffffffffffffffffffffffff82620002da565b620003258683620002da565b95508019841693508086168417925050509392505050565b6000819050919050565b6000819050919050565b6000620003726200036c62000366846200033d565b62000347565b6200033d565b9050919050565b6000819050919050565b6200038e8362000351565b620003a66200039d8262000379565b848454620002e7565b825550505050565b600090565b620003bd620003ae565b620003ca81848462000383565b505050565b5b81811015620003f257620003e6600082620003b3565b600181019050620003d0565b5050565b601f82111562000441576200040b81620002b5565b6200041684620002ca565b8101602085101562000426578190505b6200043e6200043585620002ca565b830182620003cf565b50505b505050565b600082821c905092915050565b6000620004666000198460080262000446565b1980831691505092915050565b600062000481838362000453565b9150826002028217905092915050565b6200049c8262000217565b67ffffffffffffffff811115620004b857620004b762000222565b5b620004c4825462000280565b620004d1828285620003f6565b600060209050601f831160018114620005095760008415620004f4578287015190505b62000500858262000473565b86555062000570565b601f1984166200051986620002b5565b60005b8281101562000543578489015182556001820191506020850194506020810190506200051c565b868310156200056357848901516200055f601f89168262000453565b8355505b6001600288020188555050505b505050505050565b600073ffffffffffffffffffffffffffffffffffffffff82169050919050565b6000620005a58262000578565b9050919050565b620005b78162000598565b82525050565b6000602082019050620005d46000830184620005ac565b92915050565b612d9d80620005ea6000396000f3fe60806040526004361061014b5760003560e01c8063715018a6116100b6578063ac4460021161006f578063ac4460021461047c578063b88d4fde14610493578063c87b56dd146104bc578063e985e9c5146104f9578063f2fde38b14610536578063fb37e8831461055f5761014b565b8063715018a614610392578063833b9499146103a95780638da5cb5b146103d457806391b7f5ed146103ff57806395d89b4114610428578063a22cb465146104535761014b565b806332cb6b0c1161010857806332cb6b0c14610270578063417bac1a1461029b57806342842e0e146102c65780636352211e146102ef5780636f8b44b01461032c57806370a08231146103555761014b565b806301ffc9a71461015057806306fdde031461018d578063081812fc146101b8578063095ea7b3146101f557806323b872dd1461021e57806327ea6f2b14610247575b600080fd5b34801561015c57600080fd5b5061017760048036038101906101729190611fcb565b61058f565b6040516101849190612013565b60405180910390f35b34801561019957600080fd5b506101a26105f0565b6040516101af91906120be565b60405180910390f35b3480156101c457600080fd5b506101df60048036038101906101da9190612116565b610682565b6040516101ec9190612184565b60405180910390f35b34801561020157600080fd5b5061021c600480360381019061021791906121cb565b61069e565b005b34801561022a57600080fd5b506102456004803603810190610240919061220b565b6106b4565b005b34801561025357600080fd5b5061026e60048036038101906102699190612116565b6107b6565b005b34801561027c57600080fd5b506102856107c8565b604051610292919061226d565b60405180910390f35b3480156102a757600080fd5b506102b06107ce565b6040516102bd919061226d565b60405180910390f35b3480156102d257600080fd5b506102ed60048036038101906102e8919061220b565b6107d4565b005b3480156102fb57600080fd5b5061031660048036038101906103119190612116565b6107f4565b6040516103239190612184565b60405180910390f35b34801561033857600080fd5b50610353600480360381019061034e9190612116565b610806565b005b34801561036157600080fd5b5061037c60048036038101906103779190612288565b610818565b604051610389919061226d565b60405180910390f35b34801561039e57600080fd5b506103a76108d2565b005b3480156103b557600080fd5b506103be6108e6565b6040516103cb919061226d565b60405180910390f35b3480156103e057600080fd5b506103e96108ec565b6040516103f69190612184565b60405180910390f35b34801561040b57600080fd5b5061042660048036038101906104219190612116565b610916565b005b34801561043457600080fd5b5061043d610928565b60405161044a91906120be565b60405180910390f35b34801561045f57600080fd5b5061047a600480360381019061047591906122e1565b6109ba565b005b34801561048857600080fd5b506104916109d0565b005b34801561049f57600080fd5b506104ba60048036038101906104b59190612456565b610a27565b005b3480156104c857600080fd5b506104e360048036038101906104de9190612116565b610a44565b6040516104f091906120be565b60405180910390f35b34801561050557600080fd5b50610520600480360381019061051b91906124d9565b610b57565b60405161052d9190612013565b60405180910390f35b34801561054257600080fd5b5061055d60048036038101906105589190612288565b610beb565b005b610579600480360381019061057491906125ba565b610c71565b604051610586919061226d565b60405180910390f35b6000634906490660e01b7bffffffffffffffffffffffffffffffffffffffffffffffffffffffff1916827bffffffffffffffffffffffffffffffffffffffffffffffffffffffff191614806105e957506105e882610f2a565b5b9050919050565b6060600080546105ff90612632565b80601f016020809104026020016040519081016040528092919081815260200182805461062b90612632565b80156106785780601f1061064d57610100808354040283529160200191610678565b820191906000526020600020905b81548152906001019060200180831161065b57829003601f168201915b5050505050905090565b600061068d8261100c565b5061069782611094565b9050919050565b6106b082826106ab6110d1565b6110d9565b5050565b600073ffffffffffffffffffffffffffffffffffffffff168273ffffffffffffffffffffffffffffffffffffffff16036107265760006040517f64a0ae9200000000000000000000000000000000000000000000000000000000815260040161071d9190612184565b60405180910390fd5b600061073a83836107356110d1565b6110eb565b90508373ffffffffffffffffffffffffffffffffffffffff168173ffffffffffffffffffffffffffffffffffffffff16146107b0578382826040517f64283d7b0000000000000000000000000000000000000000000000000000000081526004016107a793929190612663565b60405180910390fd5b50505050565b6107be611305565b80600d8190555050565b600e5481565b600d5481565b6107ef83838360405180602001604052806000815250610a27565b505050565b60006107ff8261100c565b9050919050565b61080e611305565b80600e8190555050565b60008073ffffffffffffffffffffffffffffffffffffffff168273ffffffffffffffffffffffffffffffffffffffff160361088b5760006040517f89c62b640000000000000000000000000000000000000000000000000000000081526004016108829190612184565b60405180910390fd5b600360008373ffffffffffffffffffffffffffffffffffffffff1673ffffffffffffffffffffffffffffffffffffffff168152602001908152602001600020549050919050565b6108da611305565b6108e4600061138c565b565b600c5481565b6000600760009054906101000a900473ffffffffffffffffffffffffffffffffffffffff16905090565b61091e611305565b80600c8190555050565b60606001805461093790612632565b80601f016020809104026020016040519081016040528092919081815260200182805461096390612632565b80156109b05780601f10610985576101008083540402835291602001916109b0565b820191906000526020600020905b81548152906001019060200180831161099357829003601f168201915b5050505050905090565b6109cc6109c56110d1565b8383611452565b5050565b6109d8611305565b60003390508073ffffffffffffffffffffffffffffffffffffffff166108fc479081150290604051600060405180830381858888f19350505050158015610a23573d6000803e3d6000fd5b5050565b610a328484846106b4565b610a3e848484846115c1565b50505050565b6060610a4f8261100c565b506000600660008481526020019081526020016000208054610a7090612632565b80601f0160208091040260200160405190810160405280929190818152602001828054610a9c90612632565b8015610ae95780601f10610abe57610100808354040283529160200191610ae9565b820191906000526020600020905b815481529060010190602001808311610acc57829003601f168201915b505050505090506000610afa611778565b90506000815103610b0f578192505050610b52565b600082511115610b44578082604051602001610b2c9291906126d6565b60405160208183030381529060405292505050610b52565b610b4d8461178f565b925050505b919050565b6000600560008473ffffffffffffffffffffffffffffffffffffffff1673ffffffffffffffffffffffffffffffffffffffff16815260200190815260200160002060008373ffffffffffffffffffffffffffffffffffffffff1673ffffffffffffffffffffffffffffffffffffffff16815260200190815260200160002060009054906101000a900460ff16905092915050565b610bf3611305565b600073ffffffffffffffffffffffffffffffffffffffff168173ffffffffffffffffffffffffffffffffffffffff1603610c655760006040517f1e4fbdf7000000000000000000000000000000000000000000000000000000008152600401610c5c9190612184565b60405180910390fd5b610c6e8161138c565b50565b600034600c541115610cb8576040517f08c379a0000000000000000000000000000000000000000000000000000000008152600401610caf90612746565b60405180910390fd5b600d54600a60003373ffffffffffffffffffffffffffffffffffffffff1673ffffffffffffffffffffffffffffffffffffffff16815260200190815260200160002060009054906101000a900460ff1660ff1610610d4b576040517f08c379a0000000000000000000000000000000000000000000000000000000008152600401610d42906127b2565b60405180910390fd5b600e546001600954610d5d9190612801565b1115610d9e576040517f08c379a0000000000000000000000000000000000000000000000000000000008152600401610d9590612881565b60405180910390fd5b6000600b83604051610db091906128a1565b908152602001604051809103902060009054906101000a900460ff1660ff1614610e0f576040517f08c379a0000000000000000000000000000000000000000000000000000000008152600401610e0690612904565b60405180910390fd5b6001600b83604051610e2191906128a1565b908152602001604051809103902060008282829054906101000a900460ff16610e4a9190612931565b92506101000a81548160ff021916908360ff1602179055506001600a60003373ffffffffffffffffffffffffffffffffffffffff1673ffffffffffffffffffffffffffffffffffffffff16815260200190815260200160002060008282829054906101000a900460ff16610ebe9190612931565b92506101000a81548160ff021916908360ff16021790555060006008549050610ee733826117f8565b610ef181846118f1565b60086000815480929190610f0490612966565b919050555060096000815480929190610f1c90612966565b919050555080915050919050565b60007f80ac58cd000000000000000000000000000000000000000000000000000000007bffffffffffffffffffffffffffffffffffffffffffffffffffffffff1916827bffffffffffffffffffffffffffffffffffffffffffffffffffffffff19161480610ff557507f5b5e139f000000000000000000000000000000000000000000000000000000007bffffffffffffffffffffffffffffffffffffffffffffffffffffffff1916827bffffffffffffffffffffffffffffffffffffffffffffffffffffffff1916145b8061100557506110048261194d565b5b9050919050565b600080611018836119b7565b9050600073ffffffffffffffffffffffffffffffffffffffff168173ffffffffffffffffffffffffffffffffffffffff160361108b57826040517f7e273289000000000000000000000000000000000000000000000000000000008152600401611082919061226d565b60405180910390fd5b80915050919050565b60006004600083815260200190815260200160002060009054906101000a900473ffffffffffffffffffffffffffffffffffffffff169050919050565b600033905090565b6110e683838360016119f4565b505050565b6000806110f7846119b7565b9050600073ffffffffffffffffffffffffffffffffffffffff168373ffffffffffffffffffffffffffffffffffffffff161461113957611138818486611bb9565b5b600073ffffffffffffffffffffffffffffffffffffffff168173ffffffffffffffffffffffffffffffffffffffff16146111ca5761117b6000856000806119f4565b6001600360008373ffffffffffffffffffffffffffffffffffffffff1673ffffffffffffffffffffffffffffffffffffffff168152602001908152602001600020600082825403925050819055505b600073ffffffffffffffffffffffffffffffffffffffff168573ffffffffffffffffffffffffffffffffffffffff161461124d576001600360008773ffffffffffffffffffffffffffffffffffffffff1673ffffffffffffffffffffffffffffffffffffffff168152602001908152602001600020600082825401925050819055505b846002600086815260200190815260200160002060006101000a81548173ffffffffffffffffffffffffffffffffffffffff021916908373ffffffffffffffffffffffffffffffffffffffff160217905550838573ffffffffffffffffffffffffffffffffffffffff168273ffffffffffffffffffffffffffffffffffffffff167fddf252ad1be2c89b69c2b068fc378daa952ba7f163c4a11628f55a4df523b3ef60405160405180910390a4809150509392505050565b61130d6110d1565b73ffffffffffffffffffffffffffffffffffffffff1661132b6108ec565b73ffffffffffffffffffffffffffffffffffffffff161461138a5761134e6110d1565b6040517f118cdaa70000000000000000000000000000000000000000000000000000000081526004016113819190612184565b60405180910390fd5b565b6000600760009054906101000a900473ffffffffffffffffffffffffffffffffffffffff16905081600760006101000a81548173ffffffffffffffffffffffffffffffffffffffff021916908373ffffffffffffffffffffffffffffffffffffffff1602179055508173ffffffffffffffffffffffffffffffffffffffff168173ffffffffffffffffffffffffffffffffffffffff167f8be0079c531659141344cd1fd0a4f28419497f9722a3daafe3b4186f6b6457e060405160405180910390a35050565b600073ffffffffffffffffffffffffffffffffffffffff168273ffffffffffffffffffffffffffffffffffffffff16036114c357816040517f5b08ba180000000000000000000000000000000000000000000000000000000081526004016114ba9190612184565b60405180910390fd5b80600560008573ffffffffffffffffffffffffffffffffffffffff1673ffffffffffffffffffffffffffffffffffffffff16815260200190815260200160002060008473ffffffffffffffffffffffffffffffffffffffff1673ffffffffffffffffffffffffffffffffffffffff16815260200190815260200160002060006101000a81548160ff0219169083151502179055508173ffffffffffffffffffffffffffffffffffffffff168373ffffffffffffffffffffffffffffffffffffffff167f17307eab39ab6107e8899845ad3d59bd9653f200f220920489ca2b5937696c31836040516115b49190612013565b60405180910390a3505050565b60008373ffffffffffffffffffffffffffffffffffffffff163b1115611772578273ffffffffffffffffffffffffffffffffffffffff1663150b7a026116056110d1565b8685856040518563ffffffff1660e01b81526004016116279493929190612a03565b6020604051808303816000875af192505050801561166357506040513d601f19601f820116820180604052508101906116609190612a64565b60015b6116e7573d8060008114611693576040519150601f19603f3d011682016040523d82523d6000602084013e611698565b606091505b5060008151036116df57836040517f64a0ae920000000000000000000000000000000000000000000000000000000081526004016116d69190612184565b60405180910390fd5b805181602001fd5b63150b7a0260e01b7bffffffffffffffffffffffffffffffffffffffffffffffffffffffff1916817bffffffffffffffffffffffffffffffffffffffffffffffffffffffff19161461177057836040517f64a0ae920000000000000000000000000000000000000000000000000000000081526004016117679190612184565b60405180910390fd5b505b50505050565b606060405180602001604052806000815250905090565b606061179a8261100c565b5060006117a5611778565b905060008151116117c557604051806020016040528060008152506117f0565b806117cf84611c7d565b6040516020016117e09291906126d6565b6040516020818303038152906040525b915050919050565b600073ffffffffffffffffffffffffffffffffffffffff168273ffffffffffffffffffffffffffffffffffffffff160361186a5760006040517f64a0ae920000000000000000000000000000000000000000000000000000000081526004016118619190612184565b60405180910390fd5b6000611878838360006110eb565b9050600073ffffffffffffffffffffffffffffffffffffffff168173ffffffffffffffffffffffffffffffffffffffff16146118ec5760006040517f73c6ac6e0000000000000000000000000000000000000000000000000000000081526004016118e39190612184565b60405180910390fd5b505050565b806006600084815260200190815260200160002090816119119190612c3d565b507ff8e1a15aba9398e019f0b49df1a4fde98ee17ae345cb5f6b5e2c27f5033e8ce782604051611941919061226d565b60405180910390a15050565b60007f01ffc9a7000000000000000000000000000000000000000000000000000000007bffffffffffffffffffffffffffffffffffffffffffffffffffffffff1916827bffffffffffffffffffffffffffffffffffffffffffffffffffffffff1916149050919050565b60006002600083815260200190815260200160002060009054906101000a900473ffffffffffffffffffffffffffffffffffffffff169050919050565b8080611a2d5750600073ffffffffffffffffffffffffffffffffffffffff168273ffffffffffffffffffffffffffffffffffffffff1614155b15611b61576000611a3d8461100c565b9050600073ffffffffffffffffffffffffffffffffffffffff168373ffffffffffffffffffffffffffffffffffffffff1614158015611aa857508273ffffffffffffffffffffffffffffffffffffffff168173ffffffffffffffffffffffffffffffffffffffff1614155b8015611abb5750611ab98184610b57565b155b15611afd57826040517fa9fbf51f000000000000000000000000000000000000000000000000000000008152600401611af49190612184565b60405180910390fd5b8115611b5f57838573ffffffffffffffffffffffffffffffffffffffff168273ffffffffffffffffffffffffffffffffffffffff167f8c5be1e5ebec7d5bd14f71427d1e84f3dd0314c0f7b2291e5b200ac8c7c3b92560405160405180910390a45b505b836004600085815260200190815260200160002060006101000a81548173ffffffffffffffffffffffffffffffffffffffff021916908373ffffffffffffffffffffffffffffffffffffffff16021790555050505050565b611bc4838383611d4b565b611c7857600073ffffffffffffffffffffffffffffffffffffffff168373ffffffffffffffffffffffffffffffffffffffff1603611c3957806040517f7e273289000000000000000000000000000000000000000000000000000000008152600401611c30919061226d565b60405180910390fd5b81816040517f177e802f000000000000000000000000000000000000000000000000000000008152600401611c6f929190612d0f565b60405180910390fd5b505050565b606060006001611c8c84611e0c565b01905060008167ffffffffffffffff811115611cab57611caa61232b565b5b6040519080825280601f01601f191660200182016040528015611cdd5781602001600182028036833780820191505090505b509050600082602001820190505b600115611d40578080600190039150507f3031323334353637383961626364656600000000000000000000000000000000600a86061a8153600a8581611d3457611d33612d38565b5b04945060008503611ceb575b819350505050919050565b60008073ffffffffffffffffffffffffffffffffffffffff168373ffffffffffffffffffffffffffffffffffffffff1614158015611e0357508273ffffffffffffffffffffffffffffffffffffffff168473ffffffffffffffffffffffffffffffffffffffff161480611dc45750611dc38484610b57565b5b80611e0257508273ffffffffffffffffffffffffffffffffffffffff16611dea83611094565b73ffffffffffffffffffffffffffffffffffffffff16145b5b90509392505050565b600080600090507a184f03e93ff9f4daa797ed6e38ed64bf6a1f0100000000000000008310611e6a577a184f03e93ff9f4daa797ed6e38ed64bf6a1f0100000000000000008381611e6057611e5f612d38565b5b0492506040810190505b6d04ee2d6d415b85acef81000000008310611ea7576d04ee2d6d415b85acef81000000008381611e9d57611e9c612d38565b5b0492506020810190505b662386f26fc100008310611ed657662386f26fc100008381611ecc57611ecb612d38565b5b0492506010810190505b6305f5e1008310611eff576305f5e1008381611ef557611ef4612d38565b5b0492506008810190505b6127108310611f24576127108381611f1a57611f19612d38565b5b0492506004810190505b60648310611f475760648381611f3d57611f3c612d38565b5b0492506002810190505b600a8310611f56576001810190505b80915050919050565b6000604051905090565b600080fd5b600080fd5b60007fffffffff0000000000000000000000000000000000000000000000000000000082169050919050565b611fa881611f73565b8114611fb357600080fd5b50565b600081359050611fc581611f9f565b92915050565b600060208284031215611fe157611fe0611f69565b5b6000611fef84828501611fb6565b91505092915050565b60008115159050919050565b61200d81611ff8565b82525050565b60006020820190506120286000830184612004565b92915050565b600081519050919050565b600082825260208201905092915050565b60005b8381101561206857808201518184015260208101905061204d565b60008484015250505050565b6000601f19601f8301169050919050565b60006120908261202e565b61209a8185612039565b93506120aa81856020860161204a565b6120b381612074565b840191505092915050565b600060208201905081810360008301526120d88184612085565b905092915050565b6000819050919050565b6120f3816120e0565b81146120fe57600080fd5b50565b600081359050612110816120ea565b92915050565b60006020828403121561212c5761212b611f69565b5b600061213a84828501612101565b91505092915050565b600073ffffffffffffffffffffffffffffffffffffffff82169050919050565b600061216e82612143565b9050919050565b61217e81612163565b82525050565b60006020820190506121996000830184612175565b92915050565b6121a881612163565b81146121b357600080fd5b50565b6000813590506121c58161219f565b92915050565b600080604083850312156121e2576121e1611f69565b5b60006121f0858286016121b6565b925050602061220185828601612101565b9150509250929050565b60008060006060848603121561222457612223611f69565b5b6000612232868287016121b6565b9350506020612243868287016121b6565b925050604061225486828701612101565b9150509250925092565b612267816120e0565b82525050565b6000602082019050612282600083018461225e565b92915050565b60006020828403121561229e5761229d611f69565b5b60006122ac848285016121b6565b91505092915050565b6122be81611ff8565b81146122c957600080fd5b50565b6000813590506122db816122b5565b92915050565b600080604083850312156122f8576122f7611f69565b5b6000612306858286016121b6565b9250506020612317858286016122cc565b9150509250929050565b600080fd5b600080fd5b7f4e487b7100000000000000000000000000000000000000000000000000000000600052604160045260246000fd5b61236382612074565b810181811067ffffffffffffffff821117156123825761238161232b565b5b80604052505050565b6000612395611f5f565b90506123a1828261235a565b919050565b600067ffffffffffffffff8211156123c1576123c061232b565b5b6123ca82612074565b9050602081019050919050565b82818337600083830152505050565b60006123f96123f4846123a6565b61238b565b90508281526020810184848401111561241557612414612326565b5b6124208482856123d7565b509392505050565b600082601f83011261243d5761243c612321565b5b813561244d8482602086016123e6565b91505092915050565b600080600080608085870312156124705761246f611f69565b5b600061247e878288016121b6565b945050602061248f878288016121b6565b93505060406124a087828801612101565b925050606085013567ffffffffffffffff8111156124c1576124c0611f6e565b5b6124cd87828801612428565b91505092959194509250565b600080604083850312156124f0576124ef611f69565b5b60006124fe858286016121b6565b925050602061250f858286016121b6565b9150509250929050565b600067ffffffffffffffff8211156125345761253361232b565b5b61253d82612074565b9050602081019050919050565b600061255d61255884612519565b61238b565b90508281526020810184848401111561257957612578612326565b5b6125848482856123d7565b509392505050565b600082601f8301126125a1576125a0612321565b5b81356125b184826020860161254a565b91505092915050565b6000602082840312156125d0576125cf611f69565b5b600082013567ffffffffffffffff8111156125ee576125ed611f6e565b5b6125fa8482850161258c565b91505092915050565b7f4e487b7100000000000000000000000000000000000000000000000000000000600052602260045260246000fd5b6000600282049050600182168061264a57607f821691505b60208210810361265d5761265c612603565b5b50919050565b60006060820190506126786000830186612175565b612685602083018561225e565b6126926040830184612175565b949350505050565b600081905092915050565b60006126b08261202e565b6126ba818561269a565b93506126ca81856020860161204a565b80840191505092915050565b60006126e282856126a5565b91506126ee82846126a5565b91508190509392505050565b7f4574686572207061696420697320696e636f7272656374000000000000000000600082015250565b6000612730601783612039565b915061273b826126fa565b602082019050919050565b6000602082019050818103600083015261275f81612723565b9050919050565b7f596f752068617665206578636565646564206d696e74696e67206c696d697400600082015250565b600061279c601f83612039565b91506127a782612766565b602082019050919050565b600060208201905081810360008301526127cb8161278f565b9050919050565b7f4e487b7100000000000000000000000000000000000000000000000000000000600052601160045260246000fd5b600061280c826120e0565b9150612817836120e0565b925082820190508082111561282f5761282e6127d2565b5b92915050565b7f596f752068617665206578636565646564204d617820537570706c7900000000600082015250565b600061286b601c83612039565b915061287682612835565b602082019050919050565b6000602082019050818103600083015261289a8161285e565b9050919050565b60006128ad82846126a5565b915081905092915050565b7f54686973204e46542068617320616c7265616479206265656e206d696e746564600082015250565b60006128ee602083612039565b91506128f9826128b8565b602082019050919050565b6000602082019050818103600083015261291d816128e1565b9050919050565b600060ff82169050919050565b600061293c82612924565b915061294783612924565b9250828201905060ff8111156129605761295f6127d2565b5b92915050565b6000612971826120e0565b91507fffffffffffffffffffffffffffffffffffffffffffffffffffffffffffffffff82036129a3576129a26127d2565b5b600182019050919050565b600081519050919050565b600082825260208201905092915050565b60006129d5826129ae565b6129df81856129b9565b93506129ef81856020860161204a565b6129f881612074565b840191505092915050565b6000608082019050612a186000830187612175565b612a256020830186612175565b612a32604083018561225e565b8181036060830152612a4481846129ca565b905095945050505050565b600081519050612a5e81611f9f565b92915050565b600060208284031215612a7a57612a79611f69565b5b6000612a8884828501612a4f565b91505092915050565b60008190508160005260206000209050919050565b60006020601f8301049050919050565b600082821b905092915050565b600060088302612af37fffffffffffffffffffffffffffffffffffffffffffffffffffffffffffffffff82612ab6565b612afd8683612ab6565b95508019841693508086168417925050509392505050565b6000819050919050565b6000612b3a612b35612b30846120e0565b612b15565b6120e0565b9050919050565b6000819050919050565b612b5483612b1f565b612b68612b6082612b41565b848454612ac3565b825550505050565b600090565b612b7d612b70565b612b88818484612b4b565b505050565b5b81811015612bac57612ba1600082612b75565b600181019050612b8e565b5050565b601f821115612bf157612bc281612a91565b612bcb84612aa6565b81016020851015612bda578190505b612bee612be685612aa6565b830182612b8d565b50505b505050565b600082821c905092915050565b6000612c1460001984600802612bf6565b1980831691505092915050565b6000612c2d8383612c03565b9150826002028217905092915050565b612c468261202e565b67ffffffffffffffff811115612c5f57612c5e61232b565b5b612c698254612632565b612c74828285612bb0565b600060209050601f831160018114612ca75760008415612c95578287015190505b612c9f8582612c21565b865550612d07565b601f198416612cb586612a91565b60005b82811015612cdd57848901518255600182019150602085019450602081019050612cb8565b86831015612cfa5784890151612cf6601f891682612c03565b8355505b6001600288020188555050505b505050505050565b6000604082019050612d246000830185612175565b612d31602083018461225e565b9392505050565b7f4e487b7100000000000000000000000000000000000000000000000000000000600052601260045260246000fdfea2646970667358221220564191f2f39386f5cd9fde0a82a44573d15169a6d1b516ae6ff8e4224d65584c64736f6c63430008140033",
    "linkReferences": {},
    "deployedLinkReferences": {}
}